:100000000C942A000C9443050C9447000C94470070
:100010000C9447000C9447000C9447000C94470044
:100020000C9447000C9447000C9447000C94470034
:100030000C9447000C9447000C9447000C94470024
:100040000C9447000C9447000C9447000C9408054E
:100050000C94470011241FBECFE5D4E0DEBFCDBF16
:1000600010E0A0E6B0E0E6EFF2E202C005900D92EB
:10007000A636B107D9F710E0A6E6B0E001C01D92A0
:10008000A93BB107E1F70E9436060C9479110C9454
:10009000000096B39E709E30C1F02FEF37EE43E024
:1000A000215030404040E1F700C0000096B3982B4B
:1000B000891769F48FEF90E7A2E081509040A0404B
:1000C000E1F700C0000081E0089580E0089580E03D
:1000D000089583B380958F700895CF93DF93C0E028
:1000E000D0E060E070E080E090E023B330E0209565
:1000F00030950C2E02C0359527950A94E2F720FF23
:100100000EC0382F292F862F972FA32FB22FBC0177
:10011000CD012DEC3CEC4CEC5DE30E942C0F2196C4
:10012000C430D10511F7382F292F862F972FA32FF1
:10013000B22FBC01CD01DF91CF9108950895282FF2
:10014000392F6FEF233D360714F423ED3FEF2E32A6
:10015000310514F02DE230E0C901880F991F820F9C
:10016000931FAC01440F551F440F551F440F551FDB
:10017000BA01681B790B260F371F2258334F3BBD3E
:100180002ABD08954F925F926F927F928F929F92B5
:10019000AF92BF92CF92DF92EF92FF920F931F9395
:1001A000CF93DF9300D000D0CDB7DEB729833A8359
:1001B0004B835C8367017801409077005090780012
:1001C0006090790070907A00A30192010E94B610AD
:1001D000062F872E182FB92EC701B60120E030E078
:1001E00048EC52E40E94900FE62EC72ED82EF92E2E
:1001F000802F982DA12FBB2DBC01CD010E2D1C2DC4
:100200002D2D3F2DA90198010E94B610862E972E04
:10021000A82EB92EC301B20129813A814B815C819C
:100220000E94B610B62FA72F382F292F4E2D5C2DE8
:100230006D2D7F2DCB01BA01422F0B2F1A2F232FAB
:10024000342FA90198010E94B610C62ED72EE82E91
:10025000F92E462F572F682F792FCB01BA0120E0B6
:1002600030E0A9010E94B21088238CF0AC9AAD98BE
:10027000C701B60120E030E048E453E40E94B61024
:100280000E94F80FDC01CB0199BD88BD11C0AC986C
:10029000AD9AC701B601905820E030E048E453E43D
:1002A0000E94B6100E94F80FDC01CB0199BD88BDF9
:1002B000C501B40120E030E0A9010E94B2108823FA
:1002C000A4F0939A9698C501B40120E030E04FE77E
:1002D00053E40E94B61020E030E048EC52E40E9463
:1002E000900F0E94F80F63BD14C09398969AC501B1
:1002F000B401905820E030E04FE753E40E94B6107C
:1003000020E030E048EC52E40E94900F0E94F80F89
:1003100063BD0F900F900F900F90DF91CF911F91C1
:100320000F91FF90EF90DF90CF90BF90AF909F9094
:100330008F907F906F905F904F900895939A969AC8
:100340008FEF83BDAC9AAD9A80E29EE499BD88BDE3
:1003500008958FB9779BFECF0895CF93DF939C01CB
:10036000EAE0F0E0BF010E943D11806880938400C4
:10037000C4E6D0E0C901BE010E943D11BF010E9448
:100380003D11462FC90168EE73E00E943D11262FF2
:10039000BE010E943D11222311F080E101C080E0E6
:1003A000282B209387002223C1F4662311F080E2DA
:1003B00001C080E0682B60938600942F662321F4AF
:1003C000442321F080E403C080E401C080E0892B55
:1003D00080938500DF91CF910895606260938600DD
:1003E000942F80E4F4CFCF9390918300892F8F5F77
:1003F00080938300943019F41092830009C08130F7
:1004000051F0813028F0823049F0833069F409C01E
:10041000C09187000AC0C091860007C0C0918500C6
:1004200004C0C091840001C0C0E080918800809524
:100430000E94A9018C2F0E94A901C49AC498CF914F
:100440000895AF92BF92CF92DF92EF92FF920F93F7
:100450001F93CF93DF930F2EF9E8AF2EF0E0BF2E5E
:10046000F02D0F2EF9E9CF2EF0E0DF2EF02D8601D2
:100470007501C0E0D0E0E199FECFCE010E9451119C
:10048000D8018D939D938D01E199FECFCE014096C9
:100490000E945111F701819391937F012296C031FF
:1004A000D10549F7E9EAF0E009EA10E0C4E1D0E05B
:1004B000D6012D913D916D01D5018D919D915D01EB
:1004C000820F931FAC0156954795CA01880F991F5B
:1004D0009C01220F331F220F331F220F331F820F65
:1004E000931F840F951FBE010E943D11619371936C
:1004F000C016D106E9F6DF91CF911F910F91FF90C1
:10050000EF90DF90CF90BF90AF900895EF92FF9261
:100510000F931F93CF93DF9309E810E00F2EF9E9B3
:10052000EF2EF0E0FF2EF02DC0E0D0E0E199FECFFD
:10053000F701619171917F01CE010E945711E199FC
:10054000FECFF801619171918F01CE0140960E941A
:1005500057112296C031D10549F7DF91CF911F91F4
:100560000F91FF90EF900895806487B9369A349B7D
:10057000FECF84B195B10895CF92DF92EF92FF92B2
:100580000F931F93CF93DF93E82E09EA10E0C0E0AA
:10059000D0E0FF24CC24DD24C3948C2F0E94B4022D
:1005A000F801219131918F018217930740F4C60120
:1005B0000C2E02C0880F991F0A94E2F7F82A2196A0
:1005C000C830D10551F7F09288008F2D8E21DF9130
:1005D000CF911F910F91FF90EF90DF90CF900895F2
:1005E0004F925F926F927F928F929F92AF92BF9243
:1005F000CF92DF92EF92FF920F931F93CF93DF93EF
:100600000F2EF9E98F2EF0E09F2EF02D0F2EF9E836
:100610004F2EF0E05F2EF02D66247724689464F866
:10062000680C791CD201F40180E094E081939193ED
:100630001D921D92E615F705C9F781EE97E00E941D
:10064000AD01D42DD52CC82CB92CAA248DEF0E9435
:100650004900882309F053C087EF0E94490088238E
:1006600029F50D2F1D2DEC2CFB2CCA2D8C2F0E9453
:10067000B4029C01D7018D919C91119728173907DD
:1006800018F411963C932E93F80180819181821782
:10069000930710F431832083CF5F82E090E0E80E6F
:1006A000F91E0E5F1F4FC83009F7D0CFE9EAF0E01E
:1006B000C4E1D0E0D4012D913D914D01D2018D9145
:1006C0009D912D01820F931FAC0156954795CA014C
:1006D000880F991F9C01220F331F220F331F220FF7
:1006E000331F820F931F840F951FBE010E943D117F
:1006F0006193719386149704E9F60E948602DF9154
:10070000CF911F910F91FF90EF90DF90CF90BF900E
:10071000AF909F908F907F906F905F904F900895D3
:1007200080E487B985E886B90E94210281EF87BB02
:100730008FEF88BB14BA85BB8BEF81BB84B380631A
:1007400084BB85B38F7C806185BB81B3886481BBAA
:1007500082B3877B886082BB80E58DB981E08EB9EA
:100760008CE083BF8EE38CBF82E089BF82EA8FBDBD
:100770008AE18EBD80E29EE497BD86BD8FE685BD91
:1007800013BC789485B78A6085BF8BB780648BBFB4
:100790000895C0E0D0E088240F2EF3ED9F2EF02DB9
:1007A0000F2EF8E8AF2EF0E0BF2EF02DCC24DD2484
:1007B000C3948DEF0E9449008823F1F060E070E05F
:1007C00088EC92E49B01AC017B018C010E94C20089
:1007D000C1508C2F992787FD90950E949F00C43DA2
:1007E0000CF4C92D8C2F992787FD909590958195B4
:1007F0009F4F0E94AD014AC087EF0E9449008823A5
:1008000019F160E070E088EC92EC9B01AC010F2ED6
:10081000F0E0EF2EF0E0FF2EF8EC0F2FF2E41F2FA8
:10082000F02D0E94C200CF5F8C2F992787FD9095F5
:100830000E949F00CD320CF0CDE28C2F992787FDCE
:1008400090950E94AD0122C08BEF0E944900882341
:1008500051F0DF5FD83009F4D82D8D2F0E94B402FB
:100860000E94AD0113C060E070E0CB019B01AC01C0
:100870007B018C010E94C20080E090E00E949F00FA
:100880008D2F0E94B4020E94AD01C82DC6010D2E0D
:1008900002C0880F991F0A94E2F7F501808389CF7F
:1008A0000F931F93CF93DF93009173001091740007
:1008B000D0917500C09176008BEF0E94490088238B
:1008C000C9F0802F912FAD2FBC2F80937300909390
:1008D0007400A0937500B093760080937700909396
:1008E0007800A0937900B0937A00DF91CF911F91A7
:1008F0000F9108958DEF0E944900882331F1802FD8
:10090000912FAD2FBC2FBC01CD012DEC3CEC4CE464
:100910005DE30E942C0F062F172FD82FC92F862F8B
:10092000912FAD2FBC2FBC01CD012EEA37E441E859
:100930005FE30E94B210181644F400917300109106
:100940007400D0917500C0917600802F912FAD2F4B
:10095000BC2FBC01CD0120E030E048EC52E40E9405
:10096000B6100E94F80FDC01CB010E94AD018FEFA1
:100970000E94BC02A1CFEF92FF920F931F9380E0E1
:1009800090E00E949F0060E070E0CB019B01AC0111
:100990007B018C010E94C20080E090E0A0E0BFE3F8
:1009A0008093730090937400A0937500B0937600C9
:1009B0006091730070917400809175009091760041
:1009C00020E030E048EC52E40E94B6100E94F80F9C
:1009D000DC01CB010E94AD018FEF0E94BC028DEFC4
:1009E0000E944900882379F48BEF0E9449008823F4
:1009F00011F00E94C90387EF0E9449008823C1F2C9
:100A00000E94F002D5CF1F910F91FF90EF900895B3
:100A10001F920F920FB60F9211242F933F934F9373
:100A20005F936F937F938F939F93AF93BF93EF9356
:100A3000FF938091700090917100019690937100E6
:100A40008093700080916E0090916F00019690935A
:100A50006F0080936E00809169008F5F80936900C2
:100A60000E94F301FF91EF91BF91AF919F918F9100
:100A70007F916F915F914F913F912F910F900FBE9A
:100A80000F901F9018951F920F920FB60F9211247E
:100A90000F900FBE0F901F9018958FEF0E94BC0211
:100AA000809368008F3331F08F3121F08F3011F057
:100AB000873069F510926F0010926E008FEF0E94E0
:100AC000BC02883109F467C0893130F4863009F4FA
:100AD00062C08C30A9F45FC0803609F45CC08F3FDF
:100AE00019F0803369F457C08FEF90E7A2E081508E
:100AF0009040A040E1F700C0000080E090E0089541
:100B000080916E0090916F0083339105B8F28091CF
:100B10006800803E31F0803F21F0883F11F08C3F2B
:100B200051F510926F0010926E008FEF0E94BC0280
:100B30008831A1F1893128F4863081F18C30A1F41B
:100B40002DC0803659F18F3F19F0803369F426C0EB
:100B50008FEF90E7A2E081509040A040E1F700C005
:100B6000000080E090E0089580916E0090916F0009
:100B700083339105D0F2809168008F3F91F48FEF1D
:100B800090E7A2E081509040A040E1F700C0000053
:100B900080E090E0089581E090E0089582E090E0A8
:100BA00008958FEF9FEF08958FE30E94BC0280931A
:100BB00068008F3349F08F3149F08F3049F091E070
:100BC000873039F090E005C091E003C091E001C0AA
:100BD00091E0892F08958CEF0E94BC0280936800F9
:100BE000803E49F0803F49F0883F49F091E08C3FDA
:100BF00039F090E005C091E003C091E001C091E0C0
:100C0000892F0895EF92FF920F931F9380916600B2
:100C10009091670026E0853A920718F18091700064
:100C20009091710084369105A0F460E070E088EC4A
:100C300092E49B01AC010F2EF0E0EF2EF0E0FF2ECE
:100C4000FCE80F2FF2EC1F2FF02D0E94C20080E075
:100C500008C080E590E0909362008093610081E09D
:100C600000C01F910F91FF90EF9008950E94900394
:100C70000E94BB040E9450048AE080937200CAE084
:100C80000F2EFEE3DF2EF02D0F2EF4E3CF2EF02DEE
:100C9000BB24B3940F2EFDE3AF2EF02D0F2EF3E304
:100CA0009F2EF02DD4E10F2EFCEF8F2EF02D809192
:100CB00072008F3109F450C7803280F48C3009F40F
:100CC000DDC28D3028F48A3009F18B3091F749C1AB
:100CD000843109F453C4853161F75BC6843311F460
:100CE0000C948A0E853330F4893209F48DC783332E
:100CF00001F7E3C78E3311F40C94EF0E843611F430
:100D00000C94270F8D33A9F60C94C20E0E944D054A
:100D10009093640080936300009739F410927100FF
:100D200010927000D0937200C2CF8130910539F4D7
:100D3000109271001092700090927200B8CF8230C1
:100D4000910539F41092710010927000A092720017
:100D5000AECF8AE090E00E94AD018FEF0E94BC020E
:100D6000803109F447C0813190F4843009F46FC0B8
:100D7000853020F4823008F49ACF9BC0883059F136
:100D80008C3009F446C0863009F091CF92C0803390
:100D900009F44EC0813330F4883171F0803209F0AB
:100DA00086CF6EC0803609F4B0C0803C09F4ADC077
:100DB000803409F07CCFA9C080E090E00E949F00C1
:100DC00060E070E088EC92E49B01AC017B018C0157
:100DD0000E94C2006CCF83E090E00E949F0060E020
:100DE00070E088EC92E49B01AC017B018C010E94D5
:100DF000C2005DCF8DEF9FEF0E949F0060E070E02A
:100E000088EC92E49B01AC017B018C010E94C20042
:100E10004ECF85E090E00E949F0060E070E088EC9B
:100E200092E49B01AC017B018C010E94C2003FCF88
:100E30008BEF9FEF0E949F0060E070E088EC92E4EF
:100E40009B01AC017B018C010E94C20030CF87E086
:100E500090E00E949F0060E070E088EC92E420E067
:100E600030E044EB52E40F2EF0E0EF2EF0E0FF2EE6
:100E7000FEEB0F2FF2E41F2FF02D0E94C20017CFC0
:100E800089EF9FEF0E949F0060E070E084EB92E4A6
:100E900020E030E048EC52E40F2EF0E0EF2EF0E0DE
:100EA000FF2EFEEB0F2FF2E41F2FF02D0E94C20049
:100EB000FECE8AE090E00E949F0060E070E088EC47
:100EC00092E420E030E040EA52E40F2EF0E0EF2E12
:100ED000F0E0FF2EF4EB0F2FF2E41F2FF02D0E9415
:100EE000C200809170009091710090936700809390
:100EF0006600109271001092700010926D001092B6
:100F00006C008BE080937200D2CE86EF9FEF0E9440
:100F10009F0060E070E080EA92E420E030E048EC7E
:100F200052E40F2EF0E0EF2EF0E0FF2EF4EB0F2F47
:100F3000F2E41F2FF02D0E94C2008091700090916A
:100F40007100909367008093660010927100109278
:100F5000700010926D0010926C008CE08093720013
:100F6000A6CE80916000882319F10E944D059093D0
:100F7000640080936300009739F41092710010921E
:100F80007000D093720093CE8130910539F41092A5
:100F90007100109270009092720089CE823091059B
:100FA00039F41092710010927000A09272007FCEFE
:100FB0008BE090E00E94AD018FEF0E94BC0288316F
:100FC00009F41CC18931F8F4843009F4D1C08530AA
:100FD00050F4823009F486C0833008F060C081305C
:100FE00009F065CE44C0883009F408C1893020F486
:100FF000863009F05CCE99C08C3009F4DCC08031B9
:1010000009F055CEFBC0803CD1F0813C40F48138E2
:1010100071F1833861F1803809F049CE10C0803E0B
:1010200009F413C1813E20F4813C09F040CE1FC079
:10103000803F09F40AC1883F09F039CE06C18EE12C
:1010400090E00E949F0060E070E088EC92E420E075
:1010500030E0A9017B018C010E94C200AC9AAD9ADC
:1010600080E29EE499BD88BD1092600020CE89E1A7
:1010700090E00E949F0060E070E088EC92E420E045
:1010800030E0A9017B018C010E94C200AC9AAD9AAC
:1010900080E29EE499BD88BD1092600008CE84E194
:1010A00090E00E949F000E9402068823C1F0809178
:1010B000610090916200AA2797FDA095BA2FBC010C
:1010C000CD010E9426107B018C0160E070E088EC6D
:1010D00092E420E030E048E452E40E94C200109222
:1010E0006000E5CD8FE090E00E949F000E94020624
:1010F0008823C1F08091610090916200AA2797FD3A
:10110000A095BA2FBC01CD010E9426107B018C0155
:1011100060E070E088EC92E420E030E048E452E4E3
:101120000E94C20010926000C2CD8DE090E00E944B
:101130009F000E9402068823C1F080916100909177
:101140006200AA2797FDA095BA2FBC01CD010E948D
:1011500026107B018C0160E070E088EC92E420E0D6
:1011600030E04CE852E40E94C200B09260009FCD93
:101170008AE090E00E949F000E9402068823C1F04E
:101180008091610090916200AA2797FDA095BA2FE7
:10119000BC01CD010E9426107B018C0160E070E053
:1011A00088EC92E420E030E044EB52E40E94C2007C
:1011B000B09260007CCD87E090E00E949F000E948A
:1011C00002068823C1F08091610090916200AA27F5
:1011D00097FDA095BA2FBC01CD010E9426107B017E
:1011E0008C0160E070E088EC92E420E030E044EBB9
:1011F00052E40E94C200B092600059CD85E090E0B8
:101200000E949F0080916100909162009C01B90151
:10121000882777FD8095982F0E9426107B018C01EE
:1012200060E070E088EC92E49B01AC010E94C20097
:10123000B0926000109271001092700010926D00D8
:1012400010926C00C093720032CD8EE190E00E944B
:101250009F0060E070E088EC92E420E030E048E439
:1012600052EC7B018C010E94C200AC9AAD9A80E2E4
:101270009EE499BD88BD1092600019CD80916000F8
:10128000882319F10E944D059093640080936300B8
:10129000009739F41092710010927000D093720090
:1012A00006CD8130910539F41092710010927000D2
:1012B00090927200FCCC8230910539F4109271004A
:1012C00010927000A0927200F2CC8CE090E00E942C
:1012D000AD018FEF0E94BC02803209F4CBC0813295
:1012E000F0F4883009F40CC1893048F4833069F196
:1012F000873009F42CC1813009F0D9CC26C0803167
:1013000009F4FEC0813120F48F3009F0D0CC1FC128
:10131000883109F4F5C08F3109F0C9CC18C1823881
:1013200060F4803840F5803409F45EC0803609F4FA
:101330007EC0803309F0BBCCC0C0803C91F1813CC1
:10134000D1F0833809F0B3CC16C082EE9FEF0E9433
:101350009F0060E070E0CB0120E030E048EC52E418
:1013600079018A010E94C200939A969A8FEF83BDF9
:10137000109260009CCC87EE9FEF0E949F0060E07F
:1013800070E0CB0120E030E048EC52E479018A01C2
:101390000E94C200939A969A8FEF83BD10926000CC
:1013A00086CC8CEE9FEF0E949F000E94020688234D
:1013B000C1F08091610090916200AA2797FDA095ED
:1013C000BA2FBC01CD010E9426107B018C0160E088
:1013D00070E088E492E420E030E048EC52E40E94BF
:1013E000C2001092600063CC81EF9FEF0E949F00CB
:1013F0000E9402068823C1F08091610090916200F2
:10140000AA2797FDA095BA2FBC01CD010E942610F6
:101410007B018C0160E070E088E492E420E030E041
:1014200048EC52E40E94C2001092600040CC83EF6E
:101430009FEF0E949F000E9402068823C1F08091C6
:10144000610090916200AA2797FDA095BA2FBC0178
:10145000CD010E9426107B018C0160E070E08CE8D9
:1014600092E420E030E048EC52E40E94C200B092E6
:1014700060001DCC86EF9FEF0E949F000E94020635
:101480008823C1F08091610090916200AA2797FDA6
:10149000A095BA2FBC01CD010E9426107B018C01C2
:1014A00060E070E084EB92E420E030E048EC52E44D
:1014B0000E94C200B0926000FACB89EF9FEF0E94B9
:1014C0009F000E9402068823C1F0809161009091E4
:1014D0006200AA2797FDA095BA2FBC01CD010E94FA
:1014E00026107B018C0160E070E084EB92E420E048
:1014F00030E048EC52E40E94C200B0926000D7CBCA
:101500008BEF9FEF0E949F0080916100909162009D
:101510009C01B901882777FD8095982F0E9426109D
:101520007B018C0160E070E088EC92E49B01AC01EF
:101530000E94C200B0926000109271001092700080
:1015400010926D0010926C00C0937200B0CB82EECE
:101550009FEF0E949F0060E070E088E492EC20E042
:1015600030E048EC52E479018A010E94C200939A6B
:10157000969A8FEF83BD1092600099CB0E94D4059C
:10158000882341F010927100109270008FE18093D7
:1015900072008DCB0E94EB05882341F01092710000
:1015A0001092700089E28093720081CB8FEF0E94CD
:1015B000BC028823F1F4109271001092700080E058
:1015C00090E00E949F0060E070E088EC92E49B0154
:1015D000AC010F2EF0E0EF2EF0E0FF2EF0EF0F2F1A
:1015E000F1E41F2FF02D0E94C20085E1809372006C
:1015F0005ECB84E190E00E94AD01809170009091FB
:1016000071008436910538F48AEB9FEF9093620065
:101610008093610006C088E290E09093620080931E
:1016200061008FEF0E94BC02803109F468C08131F3
:10163000A8F4843009F4BDC0853038F4823009F450
:101640002EC1833009F033CB66C18830D9F18C309C
:1016500009F473C0863009F02ACBE7C0803409F45E
:101660003CC1813450F4803209F4C1C0803309F4A4
:1016700082C0883109F01BCB0AC0813809F44BC104
:10168000803C09F448C1803609F011CBEBC080E002
:1016900090E00E949F008091610090916200AA27D3
:1016A00097FDA095BA2FBC01CD010E9426107B01A9
:1016B0008C0160E070E088EC92E49B01AC010E9438
:1016C000C200F5CA82E090E00E949F008091610014
:1016D00090916200AA2797FDA095BA2FBC01CD0179
:1016E0000E9426107B018C0160E070E088EC92E49F
:1016F0009B01AC010E94C200B0926B00D8CA8EEF71
:101700009FEF0E949F008091610090916200AA2744
:1017100097FDA095BA2FBC01CD010E9426107B0138
:101720008C0160E070E088EC92E49B01AC010E94C7
:10173000C2008FEF80936B00BACA83E090E00E94F2
:101740009F008091610090916200AA2797FDA0956B
:10175000BA2FBC01CD010E9426107B018C0160E0F4
:1017600070E088EC92E49B01AC010E94C20032E080
:1017700030936B009CCA8DEF9FEF0E949F00809179
:10178000610090916200AA2797FDA095BA2FBC0135
:10179000CD010E9426107B018C0160E070E088EC96
:1017A00092E49B01AC010E94C2008EEF80936B001B
:1017B0007ECA85E090E00E949F0080916100909138
:1017C0006200AA2797FDA095BA2FBC01CD010E9407
:1017D00026107B018C0160E070E088EC92E49B01B4
:1017E000AC010E94C20023E020936B0060CA8BEF23
:1017F0009FEF0E949F008091610090916200AA2754
:1018000097FDA095BA2FBC01CD010E9426107B0147
:101810008C0160E070E088EC92E49B01AC010E94D6
:10182000C2003DEF30936B0042CA87E090E00E9417
:101830009F008091610090916200AA2797FDA0957A
:10184000BA2FBC01CD010E9426107B018C0160E003
:1018500070E088EC92E49B01AC010E94C20080928F
:101860006B0025CA89EF9FEF0E949F008091610065
:1018700090916200AA2797FDA095BA2FBC01CD01D7
:101880000E9426107B018C0160E070E088EC92E4FD
:101890009B01AC010E94C20080926B0008CA8FE0DD
:1018A00090E00E949F008091610090916200AA27C1
:1018B00097FDA095BA2FBC01CD010E9426107B0197
:1018C0008C0160E070E088EC92E49B01AC010E9426
:1018D000C20085E080936B00EAC981EF9FEF0E9410
:1018E0009F008091610090916200AA2797FDA095CA
:1018F000BA2FBC01CD010E9426107B018C0160E053
:1019000070E088EC92E49B01AC010E94C2008BEF76
:1019100080936B00CCC980916B001816D4F48EE1D3
:1019200090E00E949F008091610090916200AA2740
:1019300097FDA095BA2FBC01CD010E9426107B0116
:101940008C0160E070E088EC92E49B01AC010E94A5
:10195000C20080916B0088230CF0A9C982EE9FEF32
:101960000E949F008091610090916200AA2797FDDC
:10197000A095BA2FBC01CD010E9426107B018C01DD
:1019800060E070E088EC92E49B01AC010E94C20030
:101990008EC985E190E00E94AD0160E070E088ECC6
:1019A00092E49B01AC010F2EF0E0EF2EF0E0FF2E51
:1019B000F0EF0F2FF1E41F2FF02D0E94C2008FEFE8
:1019C0000E94BC02883111F1893178F4833009F426
:1019D00081C0843020F4813009F069C95DC086304F
:1019E000A9F08C3009F063C911C0803891F08138BA
:1019F00030F4803359F0803609F059C907C0813876
:101A000009F486C0803C09F052C923C0C09372001B
:101A10004EC98AE090E00E949F0010926F001092E1
:101A20006E0011C08FEF0E94BC0280936800882373
:101A300009F43DC9813811F0833029F487EE9FEF16
:101A40000E949F0034C98FEF0E94BC02803851F77A
:101A50002EC98AE090E00E949F0010926F001092C1
:101A60006E0014C08FEF0E94BC0280936800803823
:101A700009F41DC9882309F41AC9813811F083308B
:101A800029F487EE9FEF0E949F0011C98FEF0E94FB
:101A9000BC02803C39F70BC986EF9FEF0E949F0084
:101AA00010926F0010926E0010C08FEF0E94BC0267
:101AB00080936800882371F0813811F0803C29F40C
:101AC00089E190E00E949F0005C08FEF0E94BC0258
:101AD000813059F786EF9FEF0E949F0010926F00B0
:101AE00010926E0010C08FEF0E94BC0280936800BD
:101AF000823070F0813811F0803C29F489E190E067
:101B00000E949F0005C08FEF0E94BC02833059F7EE
:101B100086EF9FEF0E949F0010926F0010926E0060
:101B200013C08FEF0E94BC0280936800803661F082
:101B3000803E29F489E190E00E949F0005C08FEF6C
:101B40000E94BC02813869F780916E0090916F000D
:101B500084369105A0F3ABC88FE190E00E94AD01FF
:101B6000809170009091710089329105B8F48DE2F6
:101B700090E00E949F0060E070E088EC92E420E03A
:101B800030E048EC52EC7B018C010E94C200809155
:101B90007000909171008932910548F38FEF0E9497
:101BA000BC02883159F0893128F4863039F08C3004
:101BB000D1F404C0803311F08036A9F460E070E005
:101BC00088EC92E49B01AC017B018C010E94C20075
:101BD000109271001092700010926D0010926C00C3
:101BE000C093720064C88DE290E00E949F0060E0A4
:101BF00070E088EC92E420E030E048EC52EC7B01AD
:101C00008C010E94C20053C889E290E00E94AD019D
:101C1000809170009091710089329105B8F483ED44
:101C20009FEF0E949F0060E070E088EC92EC20E063
:101C300030E048EC52E479018A010E94C2008091B0
:101C40007000909171008932910548F38FEF0E94E6
:101C5000BC02883159F0893128F4863039F08C3053
:101C6000D1F404C0803311F08036A9F460E070E054
:101C700088EC92E49B01AC017B018C010E94C200C4
:101C8000109271001092700010926D0010926C0012
:101C9000C09372000CC883ED9FEF0E949F0060E02C
:101CA00070E088EC92EC20E030E048EC52E47901FE
:101CB0008A010E94C2000C94570683E390E00E94C0
:101CC000AD018FEF0E94BC02882361F41092710075
:101CD0001092700010926D0010926C00C092720011
:101CE0000C94570685E090E00E949F0060E070E051
:101CF00088EC92E49B01AC010F2EF0E0EF2EF0E0B7
:101D0000FF2EF8E40F2FF2E41F2FF02D0E94C200E7
:101D10000C94570684E390E00E94AD018FEF0E947F
:101D2000BC02883159F0893128F4863039F08C3082
:101D300089F404C0803311F0803661F41092710090
:101D40001092700010926D0010926C00C09372009F
:101D50000C9457068FE090E00E949F0060E070E0D6
:101D600088EC92E49B01AC010F2EF0E0EF2EF0E046
:101D7000FF2EF8E40F2FF2E41F2FF02D0E94C20077
:101D80000C9457068DE390E00E94AD018FEF0E9406
:101D9000BC02882361F410927100109270001092BE
:101DA0006D0010926C00D09272000C9457068BEF6D
:101DB0009FEF0E949F0060E070E088EC92E49B013E
:101DC000AC010F2EF0E0EF2EF0E0FF2EF8E40F2F25
:101DD000F2E41F2FF02D0E94C2000C9457068EE3F0
:101DE00090E00E94AD018FEF0E94BC02883159F053
:101DF000893128F4863039F08C3089F404C080337E
:101E000011F0803661F410927100109270001092FF
:101E10006D0010926C00C09372000C94570681EF15
:101E20009FEF0E949F0060E070E088EC92E49B01CD
:101E3000AC010F2EF0E0EF2EF0E0FF2EF8E40F2FB4
:101E4000F2E41F2FF02D0E94C2000C9457060E944E
:101E50009E010C9457065058BB27AA270ED048C1A4
:101E600039D130F03ED120F031F49F3F11F41EF40F
:101E70002EC10EF4E095E7FB24C1E92F4AD180F38F
:101E8000BA17620773078407950718F071F49EF577
:101E900062C10EF4E0950B2EBA2FA02D0B01B901F3
:101EA00090010C01CA01A0011124FF27591B99F0D0
:101EB000593F50F4503E68F11A16F040A22F232FDC
:101EC000342F4427585FF3CF469537952795A7952C
:101ED000F0405395C9F77EF41F16BA0B620B730BD3
:101EE000840BBAF09150A1F0FF0FBB1F661F771F44
:101EF000881FC2F70EC0BA0F621F731F841F48F4F9
:101F0000879577956795B795F7959E3F08F0B3CF7E
:101F10009395880F08F09927EE0F97958795089568
:101F20000CD0E6C0DED040F0D5D030F021F45F3FD9
:101F300019F0C7C0511110C1CAC0EBD098F3992352
:101F4000C9F35523B1F3951B550BBB27AA2762177D
:101F50007307840738F09F5F5F4F220F331F441FC2
:101F6000AA1FA9F333D00E2E3AF0E0E830D09150FA
:101F70005040E695001CCAF729D0FE2F27D0660FE7
:101F8000771F881FBB1F261737074807AB07B0E826
:101F900009F0BB0B802DBF01FF2793585F4F2AF03C
:101FA0009E3F510568F08DC0D7C05F3FECF3983E6F
:101FB000DCF3869577956795B795F7959F5FC9F799
:101FC000880F911D9695879597F90895E1E0660F22
:101FD000771F881FBB1F621773078407BA0720F09B
:101FE000621B730B840BBA0BEE1F88F7E095089504
:101FF00098D088F09F5790F0B92F9927B751A0F04B
:10200000D1F0660F771F881F991F1AF0BA95C9F78C
:1020100012C0B13081F09FD0B1E008959CC0672F0D
:10202000782F8827B85F39F0B93FCCF3869577953C
:102030006795B395D9F73EF4909580957095619525
:102040007F4F8F4F9F4F0895E89409C097FB3EF450
:1020500090958095709561957F4F8F4F9F4F9923F5
:10206000A9F0F92F96E9BB279395F6958795779573
:102070006795B795F111F8CFFAF4BB0F11F460FF33
:102080001BC06F5F7F4F8F4F9F4F16C0882311F08B
:1020900096E911C0772321F09EE8872F762F05C09F
:1020A000662371F096E8862F70E060E02AF09A953A
:1020B000660F771F881FDAF7880F9695879597F92F
:1020C000089597F99F6780E870E060E008959FEFBA
:1020D00080EC089500240A941616170618060906BF
:1020E000089500240A94121613061406050608958E
:1020F000092E0394000C11F4882352F0BB0F40F416
:10210000BF2B11F460FF04C06F5F7F4F8F4F9F4F55
:10211000089557FD9058440F551F59F05F3F71F0D7
:102120004795880F97FB991F61F09F3F79F087953E
:102130000895121613061406551FF2CF4695F1DFC7
:1021400008C0161617061806991FF1CF8695710557
:10215000610508940895E894BB2766277727CB018B
:1021600097F9089566D008F48FEF08950BD0C0CF8B
:10217000B1DF28F0B6DF18F0952309F0A2CFA7CF82
:102180001124EACFC6DFA0F3959FD1F3950F50E05D
:10219000551F629FF001729FBB27F00DB11D639F19
:1021A000AA27F00DB11DAA1F649F6627B00DA11DBF
:1021B000661F829F2227B00DA11D621F739FB00D65
:1021C000A11D621F839FA00D611D221F749F3327D5
:1021D000A00D611D231F849F600D211D822F762F6E
:1021E0006A2F11249F5750408AF0E1F088234AF06B
:1021F000EE0FFF1FBB1F661F771F881F91505040B7
:10220000A9F79E3F510570F05CCFA6CF5F3FECF37E
:10221000983EDCF3869577956795B795F795E795A2
:102220009F5FC1F7FE2B880F911D9695879597F9B3
:102230000895990F0008550FAA0BE0E8FEEF161657
:102240001706E807F907C0F012161306E407F507AA
:1022500098F0621B730B840B950B39F40A2661F01E
:10226000232B242B252B21F408950A2609F4A140C1
:10227000A6958FEF811D811D0895AA1BBB1B51E1FF
:1022800007C0AA1FBB1FA617B70710F0A61BB70BE6
:10229000881F991F5A95A9F780959095BC01CD018B
:1022A0000895A8E1B0E042E050E00C945E110E9475
:1022B0006C11272F0C946D11DC01CB01FC01E1990D
:1022C000FECF06C0FFBBEEBBE09A31960DB20D9279
:1022D00041505040B8F70895262FE199FECF9FBB9B
:1022E0008EBB2DBB0FB6F894E29AE19A0FBE019611
:0622F0000895F894FFCFF1
:0622F600016400FFFF007F
:00000001FF
